{
  "contractName": "Exchange",
  "abi": [
    {
      "constant": true,
      "inputs": [],
      "name": "orderCount",
      "outputs": [
        {
          "name": "",
          "type": "uint256"
        }
      ],
      "payable": false,
      "stateMutability": "view",
      "type": "function"
    },
    {
      "constant": true,
      "inputs": [
        {
          "name": "",
          "type": "uint256"
        }
      ],
      "name": "orderFilled",
      "outputs": [
        {
          "name": "",
          "type": "bool"
        }
      ],
      "payable": false,
      "stateMutability": "view",
      "type": "function"
    },
    {
      "constant": true,
      "inputs": [
        {
          "name": "",
          "type": "address"
        },
        {
          "name": "",
          "type": "address"
        }
      ],
      "name": "tokens",
      "outputs": [
        {
          "name": "",
          "type": "uint256"
        }
      ],
      "payable": false,
      "stateMutability": "view",
      "type": "function"
    },
    {
      "constant": true,
      "inputs": [],
      "name": "feeAccount",
      "outputs": [
        {
          "name": "",
          "type": "address"
        }
      ],
      "payable": false,
      "stateMutability": "view",
      "type": "function"
    },
    {
      "constant": true,
      "inputs": [],
      "name": "feePercent",
      "outputs": [
        {
          "name": "",
          "type": "uint256"
        }
      ],
      "payable": false,
      "stateMutability": "view",
      "type": "function"
    },
    {
      "constant": true,
      "inputs": [
        {
          "name": "",
          "type": "uint256"
        }
      ],
      "name": "orders",
      "outputs": [
        {
          "name": "id",
          "type": "uint256"
        },
        {
          "name": "user",
          "type": "address"
        },
        {
          "name": "tokenGet",
          "type": "address"
        },
        {
          "name": "amountGet",
          "type": "uint256"
        },
        {
          "name": "tokenGive",
          "type": "address"
        },
        {
          "name": "amountGive",
          "type": "uint256"
        },
        {
          "name": "timestamp",
          "type": "uint256"
        }
      ],
      "payable": false,
      "stateMutability": "view",
      "type": "function"
    },
    {
      "constant": true,
      "inputs": [
        {
          "name": "",
          "type": "uint256"
        }
      ],
      "name": "cancelOrders",
      "outputs": [
        {
          "name": "",
          "type": "bool"
        }
      ],
      "payable": false,
      "stateMutability": "view",
      "type": "function"
    },
    {
      "inputs": [
        {
          "name": "_feeAccount",
          "type": "address"
        },
        {
          "name": "_feePercent",
          "type": "uint256"
        }
      ],
      "payable": false,
      "stateMutability": "nonpayable",
      "type": "constructor"
    },
    {
      "payable": false,
      "stateMutability": "nonpayable",
      "type": "fallback"
    },
    {
      "anonymous": false,
      "inputs": [
        {
          "indexed": false,
          "name": "_token",
          "type": "address"
        },
        {
          "indexed": false,
          "name": "user",
          "type": "address"
        },
        {
          "indexed": false,
          "name": "amount",
          "type": "uint256"
        },
        {
          "indexed": false,
          "name": "curBalance",
          "type": "uint256"
        }
      ],
      "name": "Deposit",
      "type": "event"
    },
    {
      "anonymous": false,
      "inputs": [
        {
          "indexed": false,
          "name": "_token",
          "type": "address"
        },
        {
          "indexed": false,
          "name": "user",
          "type": "address"
        },
        {
          "indexed": false,
          "name": "amount",
          "type": "uint256"
        },
        {
          "indexed": false,
          "name": "curBalance",
          "type": "uint256"
        }
      ],
      "name": "Withdraw",
      "type": "event"
    },
    {
      "anonymous": false,
      "inputs": [
        {
          "indexed": false,
          "name": "id",
          "type": "uint256"
        },
        {
          "indexed": false,
          "name": "user",
          "type": "address"
        },
        {
          "indexed": false,
          "name": "tokenGet",
          "type": "address"
        },
        {
          "indexed": false,
          "name": "amountGet",
          "type": "uint256"
        },
        {
          "indexed": false,
          "name": "tokenGive",
          "type": "address"
        },
        {
          "indexed": false,
          "name": "amountGive",
          "type": "uint256"
        },
        {
          "indexed": false,
          "name": "timestamp",
          "type": "uint256"
        }
      ],
      "name": "Order",
      "type": "event"
    },
    {
      "anonymous": false,
      "inputs": [
        {
          "indexed": false,
          "name": "id",
          "type": "uint256"
        },
        {
          "indexed": false,
          "name": "user",
          "type": "address"
        },
        {
          "indexed": false,
          "name": "tokenGet",
          "type": "address"
        },
        {
          "indexed": false,
          "name": "amountGet",
          "type": "uint256"
        },
        {
          "indexed": false,
          "name": "tokenGive",
          "type": "address"
        },
        {
          "indexed": false,
          "name": "amountGive",
          "type": "uint256"
        },
        {
          "indexed": false,
          "name": "timestamp",
          "type": "uint256"
        }
      ],
      "name": "Cancel",
      "type": "event"
    },
    {
      "anonymous": false,
      "inputs": [
        {
          "indexed": false,
          "name": "id",
          "type": "uint256"
        },
        {
          "indexed": false,
          "name": "user",
          "type": "address"
        },
        {
          "indexed": false,
          "name": "tokenGet",
          "type": "address"
        },
        {
          "indexed": false,
          "name": "amountGet",
          "type": "uint256"
        },
        {
          "indexed": false,
          "name": "tokenGive",
          "type": "address"
        },
        {
          "indexed": false,
          "name": "amountGive",
          "type": "uint256"
        },
        {
          "indexed": false,
          "name": "userFill",
          "type": "address"
        },
        {
          "indexed": false,
          "name": "timestamp",
          "type": "uint256"
        }
      ],
      "name": "Trade",
      "type": "event"
    },
    {
      "constant": false,
      "inputs": [],
      "name": "depositEther",
      "outputs": [],
      "payable": true,
      "stateMutability": "payable",
      "type": "function"
    },
    {
      "constant": false,
      "inputs": [
        {
          "name": "_amount",
          "type": "uint256"
        }
      ],
      "name": "withDrawEther",
      "outputs": [],
      "payable": false,
      "stateMutability": "nonpayable",
      "type": "function"
    },
    {
      "constant": false,
      "inputs": [
        {
          "name": "_token",
          "type": "address"
        },
        {
          "name": "_amount",
          "type": "uint256"
        }
      ],
      "name": "depositToken",
      "outputs": [],
      "payable": false,
      "stateMutability": "nonpayable",
      "type": "function"
    },
    {
      "constant": false,
      "inputs": [
        {
          "name": "_token",
          "type": "address"
        },
        {
          "name": "_amount",
          "type": "uint256"
        }
      ],
      "name": "withdrawToken",
      "outputs": [],
      "payable": false,
      "stateMutability": "nonpayable",
      "type": "function"
    },
    {
      "constant": false,
      "inputs": [
        {
          "name": "_tokenGet",
          "type": "address"
        },
        {
          "name": "_amountGet",
          "type": "uint256"
        },
        {
          "name": "_tokenGive",
          "type": "address"
        },
        {
          "name": "_amountGive",
          "type": "uint256"
        }
      ],
      "name": "makeOrder",
      "outputs": [],
      "payable": false,
      "stateMutability": "nonpayable",
      "type": "function"
    },
    {
      "constant": false,
      "inputs": [
        {
          "name": "_id",
          "type": "uint256"
        }
      ],
      "name": "cancelOrder",
      "outputs": [],
      "payable": false,
      "stateMutability": "nonpayable",
      "type": "function"
    },
    {
      "constant": false,
      "inputs": [
        {
          "name": "_id",
          "type": "uint256"
        }
      ],
      "name": "fillOrder",
      "outputs": [],
      "payable": false,
      "stateMutability": "nonpayable",
      "type": "function"
    }
  ],
  "bytecode": "0x6080604052600060025534801561001557600080fd5b50604051604080611d6c8339810180604052604081101561003557600080fd5b810190808051906020019092919080519060200190929190505050816000806101000a81548173ffffffffffffffffffffffffffffffffffffffff021916908373ffffffffffffffffffffffffffffffffffffffff160217905550806001819055505050611cc4806100a86000396000f3fe6080604052600436106100d0576000357c0100000000000000000000000000000000000000000000000000000000900463ffffffff1680632453ffa8146100e2578063338b5dea1461010d5780634a93e0da14610168578063508493bc146101bb578063514fcac71461024057806365e17c9d1461027b57806367b830ad146102d25780637fd6f15c1461030d57806398ea5fca146103385780639a5c90aa146103425780639e281a98146103c7578063a85c38ef14610422578063caad5b181461051f578063e5d6b5541461055a575b3480156100dc57600080fd5b50600080fd5b3480156100ee57600080fd5b506100f76105ad565b6040518082815260200191505060405180910390f35b34801561011957600080fd5b506101666004803603604081101561013057600080fd5b81019080803573ffffffffffffffffffffffffffffffffffffffff169060200190929190803590602001909291905050506105b3565b005b34801561017457600080fd5b506101a16004803603602081101561018b57600080fd5b81019080803590602001909291905050506108bd565b604051808215151515815260200191505060405180910390f35b3480156101c757600080fd5b5061022a600480360360408110156101de57600080fd5b81019080803573ffffffffffffffffffffffffffffffffffffffff169060200190929190803573ffffffffffffffffffffffffffffffffffffffff1690602001909291905050506108dd565b6040518082815260200191505060405180910390f35b34801561024c57600080fd5b506102796004803603602081101561026357600080fd5b8101908080359060200190929190505050610902565b005b34801561028757600080fd5b50610290610b1c565b604051808273ffffffffffffffffffffffffffffffffffffffff1673ffffffffffffffffffffffffffffffffffffffff16815260200191505060405180910390f35b3480156102de57600080fd5b5061030b600480360360208110156102f557600080fd5b8101908080359060200190929190505050610b41565b005b34801561031957600080fd5b50610322610c93565b6040518082815260200191505060405180910390f35b610340610c99565b005b34801561034e57600080fd5b506103c56004803603608081101561036557600080fd5b81019080803573ffffffffffffffffffffffffffffffffffffffff16906020019092919080359060200190929190803573ffffffffffffffffffffffffffffffffffffffff16906020019092919080359060200190929190505050610e49565b005b3480156103d357600080fd5b50610420600480360360408110156103ea57600080fd5b81019080803573ffffffffffffffffffffffffffffffffffffffff169060200190929190803590602001909291905050506110de565b005b34801561042e57600080fd5b5061045b6004803603602081101561044557600080fd5b810190808035906020019092919050505061143f565b604051808881526020018773ffffffffffffffffffffffffffffffffffffffff1673ffffffffffffffffffffffffffffffffffffffff1681526020018673ffffffffffffffffffffffffffffffffffffffff1673ffffffffffffffffffffffffffffffffffffffff1681526020018581526020018473ffffffffffffffffffffffffffffffffffffffff1673ffffffffffffffffffffffffffffffffffffffff16815260200183815260200182815260200197505050505050505060405180910390f35b34801561052b57600080fd5b506105586004803603602081101561054257600080fd5b81019080803590602001909291905050506114e1565b005b34801561056657600080fd5b506105936004803603602081101561057d57600080fd5b8101908080359060200190929190505050611764565b604051808215151515815260200191505060405180910390f35b60025481565b600073ffffffffffffffffffffffffffffffffffffffff168273ffffffffffffffffffffffffffffffffffffffff16141515156105ef57600080fd5b8173ffffffffffffffffffffffffffffffffffffffff166323b872dd3330846040518463ffffffff167c0100000000000000000000000000000000000000000000000000000000028152600401808473ffffffffffffffffffffffffffffffffffffffff1673ffffffffffffffffffffffffffffffffffffffff1681526020018373ffffffffffffffffffffffffffffffffffffffff1673ffffffffffffffffffffffffffffffffffffffff1681526020018281526020019350505050602060405180830381600087803b1580156106c657600080fd5b505af11580156106da573d6000803e3d6000fd5b505050506040513d60208110156106f057600080fd5b8101908080519060200190929190505050151561070c57600080fd5b80600360008473ffffffffffffffffffffffffffffffffffffffff1673ffffffffffffffffffffffffffffffffffffffff16815260200190815260200160002060003373ffffffffffffffffffffffffffffffffffffffff1673ffffffffffffffffffffffffffffffffffffffff168152602001908152602001600020600082825401925050819055507fdcbc1c05240f31ff3ad067ef1ee35ce4997762752e3a095284754544f4c709d7823383600360008773ffffffffffffffffffffffffffffffffffffffff1673ffffffffffffffffffffffffffffffffffffffff16815260200190815260200160002060003373ffffffffffffffffffffffffffffffffffffffff1673ffffffffffffffffffffffffffffffffffffffff16815260200190815260200160002054604051808573ffffffffffffffffffffffffffffffffffffffff1673ffffffffffffffffffffffffffffffffffffffff1681526020018473ffffffffffffffffffffffffffffffffffffffff1673ffffffffffffffffffffffffffffffffffffffff16815260200183815260200182815260200194505050505060405180910390a15050565b60066020528060005260406000206000915054906101000a900460ff1681565b6003602052816000526040600020602052806000526040600020600091509150505481565b60006004600083815260200190815260200160002090508060010160009054906101000a900473ffffffffffffffffffffffffffffffffffffffff1673ffffffffffffffffffffffffffffffffffffffff163373ffffffffffffffffffffffffffffffffffffffff1614151561097757600080fd5b81816000015414151561098957600080fd5b60016005600084815260200190815260200160002060006101000a81548160ff0219169083151502179055507f77de1da0be5f2d3b110d05c6694e5c4ff2d9da7cd23d84353ecf78c7b5acec6181600001548260010160009054906101000a900473ffffffffffffffffffffffffffffffffffffffff168360020160009054906101000a900473ffffffffffffffffffffffffffffffffffffffff1684600301548560040160009054906101000a900473ffffffffffffffffffffffffffffffffffffffff16866005015442604051808881526020018773ffffffffffffffffffffffffffffffffffffffff1673ffffffffffffffffffffffffffffffffffffffff1681526020018673ffffffffffffffffffffffffffffffffffffffff1673ffffffffffffffffffffffffffffffffffffffff1681526020018581526020018473ffffffffffffffffffffffffffffffffffffffff1673ffffffffffffffffffffffffffffffffffffffff16815260200183815260200182815260200197505050505050505060405180910390a15050565b6000809054906101000a900473ffffffffffffffffffffffffffffffffffffffff1681565b600081118015610b5357506002548111155b1515610b5e57600080fd5b6006600082815260200190815260200160002060009054906101000a900460ff16151515610b8b57600080fd5b6005600082815260200190815260200160002060009054906101000a900460ff16151515610bb857600080fd5b6000600460008381526020019081526020016000209050818160000154141515610be157600080fd5b610c63828260010160009054906101000a900473ffffffffffffffffffffffffffffffffffffffff168360020160009054906101000a900473ffffffffffffffffffffffffffffffffffffffff1684600301548560040160009054906101000a900473ffffffffffffffffffffffffffffffffffffffff168660050154611784565b60016006600084815260200190815260200160002060006101000a81548160ff0219169083151502179055505050565b60015481565b34600360008073ffffffffffffffffffffffffffffffffffffffff1673ffffffffffffffffffffffffffffffffffffffff16815260200190815260200160002060003373ffffffffffffffffffffffffffffffffffffffff1673ffffffffffffffffffffffffffffffffffffffff168152602001908152602001600020600082825401925050819055507fdcbc1c05240f31ff3ad067ef1ee35ce4997762752e3a095284754544f4c709d760003334600360008073ffffffffffffffffffffffffffffffffffffffff1673ffffffffffffffffffffffffffffffffffffffff16815260200190815260200160002060003373ffffffffffffffffffffffffffffffffffffffff1673ffffffffffffffffffffffffffffffffffffffff16815260200190815260200160002054604051808573ffffffffffffffffffffffffffffffffffffffff1673ffffffffffffffffffffffffffffffffffffffff1681526020018473ffffffffffffffffffffffffffffffffffffffff1673ffffffffffffffffffffffffffffffffffffffff16815260200183815260200182815260200194505050505060405180910390a1565b60016002600082825401925050819055506000600254905060e0604051908101604052808281526020013373ffffffffffffffffffffffffffffffffffffffff1681526020018673ffffffffffffffffffffffffffffffffffffffff1681526020018581526020018473ffffffffffffffffffffffffffffffffffffffff168152602001838152602001428152506004600060025481526020019081526020016000206000820151816000015560208201518160010160006101000a81548173ffffffffffffffffffffffffffffffffffffffff021916908373ffffffffffffffffffffffffffffffffffffffff16021790555060408201518160020160006101000a81548173ffffffffffffffffffffffffffffffffffffffff021916908373ffffffffffffffffffffffffffffffffffffffff1602179055506060820151816003015560808201518160040160006101000a81548173ffffffffffffffffffffffffffffffffffffffff021916908373ffffffffffffffffffffffffffffffffffffffff16021790555060a0820151816005015560c082015181600601559050507f9d33853d43e3607b4cc01fdc78338ff2dca6fef7db9232dae6d3eb55fbc3b10981338787878742604051808881526020018773ffffffffffffffffffffffffffffffffffffffff1673ffffffffffffffffffffffffffffffffffffffff1681526020018673ffffffffffffffffffffffffffffffffffffffff1673ffffffffffffffffffffffffffffffffffffffff1681526020018581526020018473ffffffffffffffffffffffffffffffffffffffff1673ffffffffffffffffffffffffffffffffffffffff16815260200183815260200182815260200197505050505050505060405180910390a15050505050565b600073ffffffffffffffffffffffffffffffffffffffff168273ffffffffffffffffffffffffffffffffffffffff161415151561111a57600080fd5b80600360008473ffffffffffffffffffffffffffffffffffffffff1673ffffffffffffffffffffffffffffffffffffffff16815260200190815260200160002060003373ffffffffffffffffffffffffffffffffffffffff1673ffffffffffffffffffffffffffffffffffffffff16815260200190815260200160002054101515156111a557600080fd5b80600360008473ffffffffffffffffffffffffffffffffffffffff1673ffffffffffffffffffffffffffffffffffffffff16815260200190815260200160002060003373ffffffffffffffffffffffffffffffffffffffff1673ffffffffffffffffffffffffffffffffffffffff168152602001908152602001600020600082825403925050819055508173ffffffffffffffffffffffffffffffffffffffff1663a9059cbb33836040518363ffffffff167c0100000000000000000000000000000000000000000000000000000000028152600401808373ffffffffffffffffffffffffffffffffffffffff1673ffffffffffffffffffffffffffffffffffffffff16815260200182815260200192505050602060405180830381600087803b1580156112d257600080fd5b505af11580156112e6573d6000803e3d6000fd5b505050506040513d60208110156112fc57600080fd5b8101908080519060200190929190505050151561131857600080fd5b7ff341246adaac6f497bc2a656f546ab9e182111d630394f0c57c710a59a2cb567823383600360008773ffffffffffffffffffffffffffffffffffffffff1673ffffffffffffffffffffffffffffffffffffffff16815260200190815260200160002060003373ffffffffffffffffffffffffffffffffffffffff1673ffffffffffffffffffffffffffffffffffffffff16815260200190815260200160002054604051808573ffffffffffffffffffffffffffffffffffffffff1673ffffffffffffffffffffffffffffffffffffffff1681526020018473ffffffffffffffffffffffffffffffffffffffff1673ffffffffffffffffffffffffffffffffffffffff16815260200183815260200182815260200194505050505060405180910390a15050565b60046020528060005260406000206000915090508060000154908060010160009054906101000a900473ffffffffffffffffffffffffffffffffffffffff16908060020160009054906101000a900473ffffffffffffffffffffffffffffffffffffffff16908060030154908060040160009054906101000a900473ffffffffffffffffffffffffffffffffffffffff16908060050154908060060154905087565b80600360008073ffffffffffffffffffffffffffffffffffffffff1673ffffffffffffffffffffffffffffffffffffffff16815260200190815260200160002060003373ffffffffffffffffffffffffffffffffffffffff1673ffffffffffffffffffffffffffffffffffffffff168152602001908152602001600020541015151561156c57600080fd5b80600360008073ffffffffffffffffffffffffffffffffffffffff1673ffffffffffffffffffffffffffffffffffffffff16815260200190815260200160002060003373ffffffffffffffffffffffffffffffffffffffff1673ffffffffffffffffffffffffffffffffffffffff168152602001908152602001600020600082825403925050819055503373ffffffffffffffffffffffffffffffffffffffff166108fc829081150290604051600060405180830381858888f1935050505015801561163c573d6000803e3d6000fd5b507ff341246adaac6f497bc2a656f546ab9e182111d630394f0c57c710a59a2cb56760003383600360008073ffffffffffffffffffffffffffffffffffffffff1673ffffffffffffffffffffffffffffffffffffffff16815260200190815260200160002060003373ffffffffffffffffffffffffffffffffffffffff1673ffffffffffffffffffffffffffffffffffffffff16815260200190815260200160002054604051808573ffffffffffffffffffffffffffffffffffffffff1673ffffffffffffffffffffffffffffffffffffffff1681526020018473ffffffffffffffffffffffffffffffffffffffff1673ffffffffffffffffffffffffffffffffffffffff16815260200183815260200182815260200194505050505060405180910390a150565b60056020528060005260406000206000915054906101000a900460ff1681565b60006064600154830281151561179657fe5b049050808401600360008773ffffffffffffffffffffffffffffffffffffffff1673ffffffffffffffffffffffffffffffffffffffff16815260200190815260200160002060003373ffffffffffffffffffffffffffffffffffffffff1673ffffffffffffffffffffffffffffffffffffffff168152602001908152602001600020541015151561182657600080fd5b8084600360008873ffffffffffffffffffffffffffffffffffffffff1673ffffffffffffffffffffffffffffffffffffffff16815260200190815260200160002060003373ffffffffffffffffffffffffffffffffffffffff1673ffffffffffffffffffffffffffffffffffffffff168152602001908152602001600020540303600360008773ffffffffffffffffffffffffffffffffffffffff1673ffffffffffffffffffffffffffffffffffffffff16815260200190815260200160002060003373ffffffffffffffffffffffffffffffffffffffff1673ffffffffffffffffffffffffffffffffffffffff1681526020019081526020016000208190555083600360008773ffffffffffffffffffffffffffffffffffffffff1673ffffffffffffffffffffffffffffffffffffffff16815260200190815260200160002060008873ffffffffffffffffffffffffffffffffffffffff1673ffffffffffffffffffffffffffffffffffffffff1681526020019081526020016000206000828254019250508190555081600360008573ffffffffffffffffffffffffffffffffffffffff1673ffffffffffffffffffffffffffffffffffffffff16815260200190815260200160002060003373ffffffffffffffffffffffffffffffffffffffff1673ffffffffffffffffffffffffffffffffffffffff1681526020019081526020016000206000828254019250508190555081600360008573ffffffffffffffffffffffffffffffffffffffff1673ffffffffffffffffffffffffffffffffffffffff16815260200190815260200160002060008873ffffffffffffffffffffffffffffffffffffffff1673ffffffffffffffffffffffffffffffffffffffff1681526020019081526020016000206000828254039250508190555080600360008773ffffffffffffffffffffffffffffffffffffffff1673ffffffffffffffffffffffffffffffffffffffff16815260200190815260200160002060008060009054906101000a900473ffffffffffffffffffffffffffffffffffffffff1673ffffffffffffffffffffffffffffffffffffffff1673ffffffffffffffffffffffffffffffffffffffff168152602001908152602001600020600082825401925050819055507f0dddf4182dc0fc1a311cb75f049c97403c6b8a99cf6b2229a36e7c526acb3f818787878787873342604051808981526020018873ffffffffffffffffffffffffffffffffffffffff1673ffffffffffffffffffffffffffffffffffffffff1681526020018773ffffffffffffffffffffffffffffffffffffffff1673ffffffffffffffffffffffffffffffffffffffff1681526020018681526020018573ffffffffffffffffffffffffffffffffffffffff1673ffffffffffffffffffffffffffffffffffffffff1681526020018481526020018373ffffffffffffffffffffffffffffffffffffffff1673ffffffffffffffffffffffffffffffffffffffff1681526020018281526020019850505050505050505060405180910390a15050505050505056fea165627a7a72305820993473bbcbd5e08bdca427c3e3a40f3489205cdfe147fa82df9a0196927ac0890029",
  "source": "// SPDX-License-Identifier: MIT\npragma solidity >= 0.5.0;\nimport './Token.sol';\n\ncontract Exchange{\n\n    address public feeAccount;\n    uint256 public feePercent;\n\n    // we are making 0x0 address to represent ether to make \n    //it representable in out tokens mapping\n    address constant ETHER = address(0);\n\n    uint256 public orderCount = 0;\n\n\n    //first address is the token address which is deposited and \n    //second is the address of the user who  deposited tokens for himself\n    mapping(address => mapping(address => uint256)) public tokens;\n    //mapping to map id with a particular order\n    mapping(uint256 => _Order) public orders;\n    mapping(uint256 => bool) public cancelOrders;\n    mapping(uint256 => bool) public orderFilled; \n\n    //Exchange events\n    event Deposit(address _token, address user, uint256 amount, uint256 curBalance);\n    event Withdraw(address _token, address user, uint256 amount, uint256 curBalance);\n\n    constructor(address _feeAccount, uint256 _feePercent) public {\n        feeAccount = _feeAccount;\n        feePercent = _feePercent;\n    }\n\n    \n    event Order(\n        uint id,\n        address user,\n        address tokenGet,\n        uint amountGet,\n        address tokenGive,\n        uint amountGive,\n        uint timestamp\n    );\n\n    event Cancel(\n        uint id,\n        address user,\n        address tokenGet,\n        uint amountGet,\n        address tokenGive,\n        uint amountGive,\n        uint timestamp\n    );\n\n      event Trade(\n        uint id,\n        address user,\n        address tokenGet,\n        uint amountGet,\n        address tokenGive,\n        uint amountGive,\n        address userFill,\n        uint timestamp\n    );\n\n    struct _Order{\n        uint id;\n        address user;\n        address tokenGet;\n        uint amountGet;\n        address tokenGive;\n        uint amountGive;\n        uint timestamp;\n    }\n\n\n\n    function() external{\n        revert();\n    }\n\n    function depositEther() payable public{\n        // require(Token(_token).transferFrom(msg.sender, address(this), _amount))\n        tokens[ETHER][msg.sender] += msg.value;\n        emit Deposit(ETHER, msg.sender, msg.value, tokens[ETHER][msg.sender]);\n    }\n\n    function withDrawEther(uint256 _amount) public{\n        require(tokens[ETHER][msg.sender] >= _amount);\n        tokens[ETHER][msg.sender] -= _amount;\n        msg.sender.transfer(_amount);\n        emit Withdraw(ETHER, msg.sender, _amount, tokens[ETHER][msg.sender]);\n    }\n\n    function depositToken (address _token, uint256 _amount) public{\n        require(_token != ETHER);//dont allow ether exchnage through this function\n        require(Token(_token).transferFrom(msg.sender, address(this), _amount));\n        tokens[_token][msg.sender] += _amount;\n        emit Deposit(_token, msg.sender, _amount, tokens[_token][msg.sender]);//emit deposit event\n    }\n    function withdrawToken (address _token, uint256 _amount) public{\n        require(_token != ETHER);//dont allow ether exchnage through this function\n        // require(Token(_token).transferFrom(msg.sender, address(this), _amount));\n        require(tokens[_token][msg.sender] >= _amount);\n        tokens[_token][msg.sender] -= _amount;\n        require(Token(_token).transfer(msg.sender, _amount));\n        emit Withdraw(_token, msg.sender, _amount, tokens[_token][msg.sender]);//emit deposit event\n    }\n\n    //function to make orders\n    function makeOrder(address _tokenGet, uint256 _amountGet, address _tokenGive, uint256 _amountGive) public{\n        orderCount += 1;\n        uint _id = orderCount;\n        orders[orderCount] = _Order(_id, msg.sender, _tokenGet, _amountGet, _tokenGive, _amountGive, now);\n        emit Order(_id, msg.sender, _tokenGet, _amountGet, _tokenGive, _amountGive, now);\n\n    }\n\n    function cancelOrder(uint256 _id) public{\n        _Order storage my_order = orders[_id];\n        require(msg.sender == address(my_order.user)); // caller of this function should be same user \n        require(my_order.id == _id); //must be a valid order\n        cancelOrders[_id] = true;\n       \n        emit Cancel(my_order.id, my_order.user, my_order.tokenGet, \n                    my_order.amountGet, my_order.tokenGive, my_order.amountGive, now);\n    }\n\n\n    function fillOrder(uint256 _id) public{\n        require(_id > 0 && _id <= orderCount);\n        require(!orderFilled[_id]);\n        require(!cancelOrders[_id]);\n        _Order storage _order = orders[_id];\n        //check if id is a valid id\n        require(_order.id == _id);\n        // require()\n        _trade(_id, _order.user, _order.tokenGet, _order.amountGet, _order.tokenGive, _order.amountGive);\n        //mark order as filled\n        orderFilled[_id] = true;\n\n    }\n\n    function _trade( uint _id, address _user, address _tokenGet, uint _amountGet, address _tokenGive, uint _amountGive) internal{\n\n        //fees charged during the transaction\n        //fees will be paid by the caller of this function\n\n        uint256 _feeAmount = (_amountGive * feePercent)/100;\n        \n        //ensure msg.sender has enough balance\n        require(tokens[_tokenGet][msg.sender] >= (_amountGet + _feeAmount));\n        //execute the trade\n        tokens[_tokenGet][msg.sender] =  tokens[_tokenGet][msg.sender] - _amountGet - _feeAmount ;\n        tokens[_tokenGet][_user] += _amountGet;\n        tokens[_tokenGive][msg.sender] += _amountGive;\n        tokens[_tokenGive][_user] -= _amountGive;\n\n        tokens[_tokenGet][feeAccount] += _feeAmount;\n\n\n        //emit trade event\n        emit Trade(_id, _user, _tokenGet, _amountGet, _tokenGive, _amountGive, msg.sender, now);\n    }\n\n}\n",
  "sourcePath": "/home/dhruv/Desktop/blockchain-project/src/contracts/Exchange.sol",
  "compiler": {
    "name": "solc",
    "version": "0.5.0+commit.1d4f565a.Emscripten.clang"
  },
  "schemaVersion": "3.2.3",
  "updatedAt": "2021-11-23T04:08:54.855Z",
  "networkType": "ethereum",
  "devdoc": {
    "methods": {}
  },
  "userdoc": {
    "methods": {}
  }
}